:100000000C9428010C9459010C9459010C94590139
:100010000C9459010C9459010C9459010C945901F8
:100020000C9459010C9459010C9459010C945901E8
:100030000C9459010C9459010C9459010C945901D8
:100040000C9459010C9459010C9459010C945901C8
:100050000C9459010C9459010C9459010C944F04BF
:100060000C9459010C9419040C94EF030C9459014D
:100070000C9459010C9459010C9459010C94590198
:100080000C9459010C9459010C9459010C94590188
:100090000C9459010C9459010C9459010C94590178
:1000A0000C9459010C9459010C9459010C94590168
:1000B0000C9459010C9459010C9459010C94590158
:1000C0000C9459010C9459010C9459010C94590148
:1000D0000C9459010C9459010C9459010C94590138
:1000E0000C9459010C94DA020C94FD020C94DE027B
:1000F0000C94B9010C9411030C945B010C943E0216
:100100000C9488010C94EF020C94F5020C940B03F0
:100110000C9497010C94D6020C94E5020C94030302
:100120000C94F1010C94EB020C94F9020C9407036B
:100130000C94E2020C9499040C94C4020C94BF0237
:100140000C9415030C94AB0100002100240027003F
:100150002A002D00300033000101000004010701D6
:100160000A0100002200250028002B002E0031008B
:10017000340002010000050108010B010505050519
:10018000070508080808020202020A0A080804040F
:10019000040401010101010101010303030303033D
:1001A0000303040707070C0C0C0C0C0C0C0C0202CC
:1001B000020206060606060606060B0B0B0B0B0BC9
:1001C0000B0B010210202008081020401020408056
:1001D000020102010804020101020408102040800B
:1001E0008040201008040201800402018040201099
:1001F00008040201080402010102040810204080E2
:10020000010204081020408000000A0B02090C0DB6
:100210000E080703040100000000000000000000B9
:1002200000000000000000000000000000000000CE
:10023000000000001211100000000000000000008B
:100240000000000000000000000000000000990411
:1002500011241FBECFEFD1E2DEBFCDBF00E00CBF47
:1002600015E0A0E0B2E0E0E9F2E100E00BBF02C07F
:1002700007900D92A239B107D9F726E0A2E9B5E0BF
:1002800001C01D92A639B207E1F711E0C8E2D1E042
:1002900000E006C021970109802FFE010E942A0973
:1002A000C732D10780E00807A9F70E944D050C94DA
:1002B00046090C940000AF92BF92CF92DF92EF926A
:1002C000FF920F931F93CF93DF936C017B018B0100
:1002D000040F151FEB015E01AE18BF08C017D10750
:1002E00059F06991D601ED91FC910190F081E02DDA
:1002F000C6011995892B79F7C501DF91CF911F911F
:100300000F91FF90EF90DF90CF90BF90AF90089546
:10031000FC01538D448D252F30E0842F90E0821B0B
:10032000930B541710F0CF96089501970895FC0190
:10033000918D828D981761F0A28DAE0FBF2FB11DE8
:100340005D968C91928D9F5F9F73928F90E0089540
:100350008FEF9FEF0895FC01918D828D981731F0FA
:10036000828DE80FF11D858D90E008958FEF9FEF4E
:100370000895FC01918D228D892F90E0805C9F4F24
:10038000821B91098F739927089581EA95E00E9455
:10039000B90121E0892B09F420E0822F0895FC01A6
:1003A000A48DA80FB92FB11DA35ABF4F2C91848DD6
:1003B00090E001968F739927848FA689B7892C9333
:1003C000A089B1898C91837080648C93938D848D86
:1003D000981306C00288F389E02D80818F7D808389
:1003E0000895EF92FF920F931F93CF93DF93EC0149
:1003F00081E0888F9B8D8C8D98131AC0E889F989CC
:10040000808185FF15C09FB7F894EE89FF896083CE
:10041000E889F98980818370806480839FBF81E04F
:1004200090E0DF91CF911F910F91FF90EF90089591
:10043000F62E0B8D10E00F5F1F4F0F731127E02E6C
:100440008C8D8E110CC00FB607FCFACFE889F989A4
:10045000808185FFF5CFCE010E94CF01F1CFEB8DDA
:10046000EC0FFD2FF11DE35AFF4FF0829FB7F89478
:100470000B8FEA89FB8980818062CFCFCF93DF9396
:10048000EC01888D8823B9F0AA89BB89E889F989AC
:100490008C9185FD03C0808186FD0DC00FB607FCE1
:1004A000F7CF8C9185FFF2CF808185FFEDCFCE0114
:1004B0000E94CF01E9CFDF91CF91089580E090E0D5
:1004C000892B29F00E94C50181110E94000080E063
:1004D00090E0892B49F080E090E0892B29F00E9480
:1004E000000081110E94000080E090E0892B49F01B
:1004F00080E090E0892B29F00E94000081110E9489
:10050000000080E090E0892B49F080E090E0892BAA
:1005100029F00E94000081110C9400000895282FFA
:1005200030E0F901E85FFD4F9491F901EE53FE4F81
:10053000449124583E4FF9012491222309F435C0F7
:10054000992311F191509231F8F4E92FF0E08827C6
:10055000E355FD4F8F4F0C942A09DE02E202BF02E1
:10056000D602DA02C402E502EB02EF02F502F9025A
:10057000FD0203030703C4020B031103150380915B
:1005800080008F7780938000E22FF0E0EE0FFF1F56
:10059000EE59FE4FA591B4918FB7F894EC9161118B
:1005A00048C040954E234C938FBF089580918000A2
:1005B0008F7DE8CF80918000877FE4CF84B58F77EF
:1005C00084BDE2CF84B58F7DFBCF8091B0008F7763
:1005D0008093B000D9CF8091B0008F7DF9CF80910A
:1005E00090008F7780939000CFCF809190008F7D87
:1005F000F9CF80919000877FF5CF8091A0008F7711
:100600008093A000C1CF8091A0008F7DF9CF809111
:10061000A000877FF5CF809120018F778093200104
:10062000B3CF809120018F7DF9CF80912001877F0A
:10063000F5CF4E2BB8CFCF93DF9390E0FC01EE5374
:10064000FE4F249184589E4FFC0184918823D1F061
:1006500090E0880F991FFC01E85BFE4FA591B491D3
:10066000FC01EE59FE4FC591D49161110EC09FB7A8
:10067000F8948C91E22FE0958E238C932881E223CD
:10068000E8839FBFDF91CF9108958FB7F894EC91E5
:10069000E22BEC938FBFF6CF3FB7F894809197058C
:1006A00090919805A0919905B0919A0526B5A89BBF
:1006B00005C02F3F19F00196A11DB11D3FBFBA2FF4
:1006C000A92F982F8827BC01CD01620F711D811DB4
:1006D000911D42E0660F771F881F991F4A95D1F739
:1006E0000895CF92DF92EF92FF920F931F93CF93D3
:1006F000DF931F921F92CDB7DEB769834A83880FBD
:10070000991F0091940610919506000F111FEEE3BA
:10071000F6E09F012E5336402017310714F4119252
:10072000F8CF2981FC01E25CF94F21838A81808323
:1007300060E0809192060E948F021016110604F567
:1007400001501109F801E25CF94FE080D090900669
:10075000C0908E0688E0F82E6E2D661F6627661FF5
:100760008C2D0E948F02EE0C61E08D2D0E948F0275
:1007700060E08D2D0E948F02FA94F110EDCFDDCF55
:1007800061E0809192060F900F90DF91CF911F91C1
:100790000F91FF90EF90DF90CF900C948F02EF922B
:1007A000FF920F931F93CF937C018C0183E0000F86
:1007B000111F8A95E1F7025B194FC1E0F801119210
:1007C0008F0140E06C2FC7010E947103CF5FC930D9
:1007D000A9F7CF911F910F91FF90EF9008951F926D
:1007E0000F920FB60F9211240BB60F922F933F93D7
:1007F0004F935F936F937F938F939F93AF93BF9329
:10080000EF93FF9381EA95E00E94CF01FF91EF9172
:10081000BF91AF919F918F917F916F915F914F9118
:100820003F912F910F900BBE0F900FBE0F901F9016
:1008300018951F920F920FB60F9211240BB60F92BC
:100840002F938F939F93EF93FF93E091B105F091D6
:10085000B2058081E091B705F091B80582FD1DC019
:1008600090818091BA058F5F8F732091BB058217AD
:1008700041F0E091BA05F0E0EF55FA4F958F809383
:10088000BA05FF91EF919F918F912F910F900BBE21
:100890000F900FBE0F901F9018958081F2CF1F927E
:1008A0000F920FB60F9211242F933F938F939F9324
:1008B000AF93BF938091930590919405A091950576
:1008C000B09196053091920523E0230F2D3758F50E
:1008D0000196A11DB11D20939205809393059093DD
:1008E0009405A0939505B0939605809197059091F6
:1008F0009805A0919905B0919A050196A11DB11D89
:100900008093970590939805A0939905B0939A05C5
:10091000BF91AF919F918F913F912F910F900FBEFB
:100920000F901F90189526E8230F0296A11DB11D68
:10093000D2CFCF93DF931092A4051092A30588EE37
:1009400093E0A0E0B0E08093A5059093A605A09366
:10095000A705B093A80584E895E09093A20580933D
:10096000A10585EC90E09093AE058093AD0584ECF5
:1009700090E09093B0058093AF0580EC90E0909369
:10098000B2058093B10581EC90E09093B40580931B
:10099000B30582EC90E09093B6058093B50586ECA4
:1009A00090E09093B8058093B7051092BA05109225
:1009B000BB051092BC051092BD05CDE0D0E0D093F0
:1009C0008F06C0938E068CE090E090939106809302
:1009D000900688E090E0909393068093920681E0E1
:1009E00090E0909395068093940661E08DE00E94DC
:1009F0001B0361E0809190060E941B0361E08091DF
:100A000092060E941B0361E0809192060E948F0271
:100A1000D0938F06C0938E06EEE4F6E0119286E046
:100A2000EE38F807D9F7D0E0C0E0809194069091B5
:100A30009506C817D90774F540E06FE0CE010E9413
:100A400071038091940690919506C817D9072CF4EC
:100A500047E06BE0CE010E94710340E069E0CE0107
:100A60000E9471038091940690919506C817D9074A
:100A70001CF4CE010E94CF038091940690919506BC
:100A8000C817D9072CF440E06CE0CE010E94710336
:100A90002196CBCFDF91CF910895789484B5826071
:100AA00084BD84B5816084BD85B5826085BD85B512
:100AB000816085BD80916E00816080936E00109290
:100AC000810080918100826080938100809181000B
:100AD000816080938100809180008160809380009C
:100AE0008091B10084608093B1008091B0008160FA
:100AF0008093B000809191008260809391008091FA
:100B0000910081608093910080919000816080933A
:100B100090008091A10082608093A1008091A1004B
:100B200081608093A1008091A00081608093A000EB
:100B30008091210182608093210180912101816057
:100B40008093210180912001816080932001809118
:100B50007A00846080937A0080917A00826080932A
:100B60007A0080917A00816080937A0080917A0087
:100B7000806880937A001092C100E091B105F091F5
:100B8000B20582E08083E091AD05F091AE05108260
:100B9000E091AF05F091B0058FEC80831092B9051C
:100BA000E091B505F091B60586E08083E091B3054C
:100BB000F091B405808180618083E091B305F0916C
:100BC000B405808188608083E091B305F091B4051D
:100BD000808180688083E091B305F091B4058081C5
:100BE0008F7D808360E086E30E941B0300E012E0BB
:100BF00050E1C52E52E0D52E60E1E62E62E0F62EE1
:100C0000E8018881229661E00E941B03F701808140
:100C1000F2E0EF0EF11C61E00E941B03CC16DD0632
:100C200081F740E2C42E42E0D42EF80180810E5FAD
:100C30001F4F61E00E948F0230E1E32E32E0F32E7D
:100C4000F7018081F2E0EF0EF11C60E00E948F025C
:100C5000CE14DF04A9F70C171D0739F7809194060D
:100C6000909195061816190634F441E06CE090E076
:100C700080E00E9471038091940690919506181669
:100C8000190634F448E06AE090E080E00E947103C5
:100C900080919406909195061816190624F490E018
:100CA00080E00E94CF0380917B00877F80937B0050
:100CB00080E480937C0080917A00806480937A0045
:100CC00080917A0086FDFCCF809178006091790058
:100CD000762F682F072E000C880B990B0E94610855
:100CE00020E030E040E251E40E94ED076B017C011E
:100CF00020E030E040E85FE30E94E80787FF05C09E
:100D0000C12CD12CE12C20E4F22EC0929D05D09272
:100D10009E05E0929F05F092A005312C212CB10197
:100D2000032C000C880B990B0E9461089B01AC01FD
:100D3000C701B6010E941109181664F080919B0545
:100D400090919C05019690939C0580939B050E9431
:100D50005E02A9CFB12CA12C85010F5F1F4F01307E
:100D6000110539F560E086E10E948F0261E087E1BC
:100D70000E948F020330110539F560E088E10E947E
:100D80008F0261E089E10E948F020530110539F57B
:100D900060E08AE10E948F0261E08BE10E948F0295
:100DA0000730110539F560E08CE10E948F0261E0A7
:100DB00029C061E086E10E948F0202301105B1F680
:100DC00060E087E10E948F0261E088E10E948F026B
:100DD00004301105B1F660E089E10E948F0261E004
:100DE0008AE10E948F0206301105B1F660E08BE1C6
:100DF0000E948F0261E08CE10E948F0260E0083067
:100E00001105A9F68DE10E948F02D0E0C0E046E313
:100E10004A9D40014B9D900C112420919B053091DF
:100E20009C052C0F3D1FC901263331053CF166E3BB
:100E300070E00E941609E6E3E69FC001E79F900D6F
:100E40001124F901E81BF90BE80DF91DEE0FFF1F46
:100E5000E05EFD4FB08021966B2D8EE2C130D10552
:100E600021F0C230D105A9F48FE20E948F026B2DD0
:100E700083E3C630D10509F4A8C011C06AEC7FEF46
:100E80000E941609F6E3F69FC001F79F900D11240A
:100E9000D8CFC330D10549F480E30E948F02C73018
:100EA000D10551F46B2D84E390C0C430D10509F015
:100EB00087C081E30E948F02C830D10509F0ADCF11
:100EC0006B2D85E30E948F020E944C032B013C0195
:100ED00084E0882E912CA12CB12C0E944C03641923
:100EE000750986099709683E734081059105A8F345
:100EF00021E0821A9108A108B10848EE440E43E0AF
:100F0000541E611C711C81149104A104B10429F7C1
:100F10008091940690919506181619064CF4FEE7F8
:100F2000F0934E064EE761E090E080E00E9471038E
:100F30008091940690919506181619064CF428E8AD
:100F400020934F0648E862E090E080E00E94710341
:100F500080919406909195061816190644F448E875
:100F60004093500663E090E080E00E94710380911E
:100F7000940690919506181619064CF488E880930B
:100F8000510648E864E090E080E00E94710380919F
:100F9000940690919506181619064CF49EE79093C6
:100FA00052064EE765E090E080E00E947103580130
:100FB0000830110509F0D0CEEFEF2E1A3E0AAFCE61
:100FC00082E3C530D10509F052CF0E948F0225CFB0
:100FD0000E949C0808F481E008950E9401080C9486
:100FE000D7080E94D00858F00E94C90840F029F4A0
:100FF0005F3F29F00C94C00851110C940B090C941C
:10100000C6080E94E80868F39923B1F3552391F3C9
:10101000951B550BBB27AA2762177307840738F067
:101020009F5F5F4F220F331F441FAA1FA9F335D0C4
:101030000E2E3AF0E0E832D091505040E695001C78
:10104000CAF72BD0FE2F29D0660F771F881FBB1F32
:10105000261737074807AB07B0E809F0BB0B802D10
:10106000BF01FF2793585F4F3AF09E3F510578F03C
:101070000C94C0080C940B095F3FE4F3983ED4F342
:10108000869577956795B795F7959F5FC9F7880F10
:10109000911D9695879597F90895E1E0660F771F62
:1010A000881FBB1F621773078407BA0720F0621BF3
:1010B000730B840BBA0BEE1F88F7E0950895E89444
:1010C00009C097FB3EF490958095709561957F4F90
:1010D0008F4F9F4F9923A9F0F92F96E9BB2793953E
:1010E000F695879577956795B795F111F8CFFAF44E
:1010F000BB0F11F460FF1BC06F5F7F4F8F4F9F4F7F
:1011000016C0882311F096E911C0772321F09EE8DC
:10111000872F762F05C0662371F096E8862F70E042
:1011200060E02AF09A95660F771F881FDAF7880F1C
:101130009695879597F90895990F0008550FAA0B72
:10114000E0E8FEEF16161706E807F907C0F01216DA
:101150001306E407F50798F0621B730B840B950BDD
:1011600039F40A2661F0232B242B252B21F4089532
:101170000A2609F4A140A6958FEF811D811D0895CF
:1011800097F99F6780E870E060E008959FEF80EC3A
:10119000089500240A9416161706180609060895DD
:1011A00000240A9412161306140605060895092E43
:1011B0000394000C11F4882352F0BB0F40F4BF2BB2
:1011C00011F460FF04C06F5F7F4F8F4F9F4F0895F2
:1011D00057FD9058440F551F59F05F3F71F04795E8
:1011E000880F97FB991F61F09F3F79F087950895CD
:1011F000121613061406551FF2CF4695F1DF08C0EC
:10120000161617061806991FF1CF86957105610508
:1012100008940895E894BB2766277727CB0197F9B0
:1012200008950E949C0808F48FEF089597FB072EFD
:1012300016F4009407D077FD09D00E94320907FC0C
:1012400005D03EF4909581959F4F089570956195D6
:101250007F4F0895EE0FFF1F881F8BBF0790F691F9
:10126000E02D1994AA1BBB1B51E107C0AA1FBB1F8D
:10127000A617B70710F0A61BB70B881F991F5A9522
:10128000A9F780959095BC01CD010895F894FFCF02
:1012900016001700180019001A001B001C001D0082
:1012A0002E002F00300031003200330034003500B2
:1012B000000000000000000000000000000000002E
:1012C000000000000000000000000000000000001E
:1012D000000001000000000000000000000001000C
:1012E00000000000000000000000000000000100FD
:1012F00000000000000000000000000000000000EE
:1013000000000000000000000000000000000000DD
:1013100000000000000000000000000000000100CC
:1013200000000000000001000000000001000100BA
:1013300000000000010001000100000000000000AA
:101340000000000001000100000001000000010099
:10135000010000000000000000000000000001008B
:101360000100010000000000010001000100000078
:101370000000010001000000000000000100010069
:10138000000000000000000000000100010000005B
:101390000100010000000100000000000100000049
:1013A0000100000000000100000001000000010039
:1013B000000000000100000001000000000001002A
:1013C000000000000000010000000100000000001B
:1013D000010000000100000000000000010000000A
:1013E00000000100000001000000000001000000FA
:1013F00000000000000001000000010000000100EA
:1014000000000100000000000100000001000000D9
:1014100000000100000001000000010000000000C9
:1014200001000000010000000000000000000000BA
:1014300000000100000001000000000001000000A9
:101440000100000000000000010000000000010099
:10145000000001000000000000000000000000008B
:101460000000010000000000000001000000010079
:101470000100010001000000010001000100000066
:101480000000010000000100000000000100000059
:101490000000010001000000000000000000010049
:1014A0000000010000000000010000000100010038
:1014B0000100000001000100010001000000000027
:1014C0000100010000000000000000000000010019
:1014D000000000000000010000000100000000000A
:1014E00001000000010000000000010000000100F8
:1014F00000000100000000000100000000000000EA
:1015000000000100000000000000010000000100D8
:1015100000000000010000000100000000000000C9
:1015200001000000000001000000000000000000B9
:1015300001000000000000000000010000000000A9
:101540000000010000000100000000000100000098
:101550000100000000000100000001000000000088
:101560000100010000000000010000000000010077
:101570000000000000000100000001000100010067
:101580000000000001000000000000000100000059
:101590000000010000000100000000000100000048
:1015A000000000000000000000000000000000003B
:1015B000000000000000000000000000000000002B
:1015C000000000000000000000000000000000001B
:1015D0000000000000000100010000000000000009
:1015E00000000000000000000000000000000000FB
:1015F00001000100010000000000000000000000E8
:1016000000000000010001000000000000000000D8
:1016100000000000F1015B0188013E02B901970161
:02162000AB011C
:00000001FF
