:100000000C9428010C9459010C9459010C94590139
:100010000C9459010C9459010C9459010C945901F8
:100020000C9459010C9459010C9459010C945901E8
:100030000C9459010C9459010C9459010C945901D8
:100040000C9459010C9459010C9459010C945901C8
:100050000C9459010C9459010C9459010C946C04A2
:100060000C9459010C9436040C940C040C94590112
:100070000C9459010C9459010C9459010C94590198
:100080000C9459010C9459010C9459010C94590188
:100090000C9459010C9459010C9459010C94590178
:1000A0000C9459010C9459010C9459010C94590168
:1000B0000C9459010C9459010C9459010C94590158
:1000C0000C9459010C9459010C9459010C94590148
:1000D0000C9459010C9459010C9459010C94590138
:1000E0000C9459010C94DE020C94F5020C945B0103
:1000F0000C94C4020C9403030C9415030C94D602C4
:100100000C94EF020C94E5020C94F1010C94B604EB
:100110000C94FD020C94EB020C94F9020C940B036A
:100120000C94DA020C9407030C943E020C94970191
:100130000C94BF020C9411030C94E2020C94AB01DA
:100140000C9488010C94B9010000210024002700C0
:100150002A002D00300033000101000004010701D6
:100160000A0100002200250028002B002E0031008B
:10017000340002010000050108010B010505050519
:10018000070508080808020202020A0A080804040F
:10019000040401010101010101010303030303033D
:1001A0000303040707070C0C0C0C0C0C0C0C0202CC
:1001B000020206060606060606060B0B0B0B0B0BC9
:1001C0000B0B010210202008081020401020408056
:1001D000020102010804020101020408102040800B
:1001E0008040201008040201800402018040201099
:1001F00008040201080402010102040810204080E2
:10020000010204081020408000000A0B02090C0DB6
:100210000E080703040100000000000000000000B9
:1002200000000000000000000000000000000000CE
:10023000000000001211100000000000000000008B
:100240000000000000000000000000000000B604F4
:1002500011241FBECFEFD1E2DEBFCDBF00E00CBF47
:1002600017E0A0E0B2E0ECE1F0E100E00BBF02C07B
:1002700007900D92A83DB107D9F728E0A8EDB7E0A7
:1002800001C01D92AC3DB207E1F711E0C8E2D1E038
:1002900000E006C021970109802FFE010E9404089A
:1002A000C732D10780E00807A9F70E946A050C94BD
:1002B0000C080C940000AF92BF92CF92DF92EF92A5
:1002C000FF920F931F93CF93DF936C017B018B0100
:1002D000040F151FEB015E01AE18BF08C017D10750
:1002E00059F06991D601ED91FC910190F081E02DDA
:1002F000C6011995892B79F7C501DF91CF911F911F
:100300000F91FF90EF90DF90CF90BF90AF90089546
:10031000FC01538D448D252F30E0842F90E0821B0B
:10032000930B541710F0CF96089501970895FC0190
:10033000918D828D981761F0A28DAE0FBF2FB11DE8
:100340005D968C91928D9F5F9F73928F90E0089540
:100350008FEF9FEF0895FC01918D828D981731F0FA
:10036000828DE80FF11D858D90E008958FEF9FEF4E
:100370000895FC01918D228D892F90E0805C9F4F24
:10038000821B91098F739927089587EE97E00E9449
:10039000B90121E0892B09F420E0822F0895FC01A6
:1003A000A48DA80FB92FB11DA35ABF4F2C91848DD6
:1003B00090E001968F739927848FA689B7892C9333
:1003C000A089B1898C91837080648C93938D848D86
:1003D000981306C00288F389E02D80818F7D808389
:1003E0000895EF92FF920F931F93CF93DF93EC0149
:1003F00081E0888F9B8D8C8D98131AC0E889F989CC
:10040000808185FF15C09FB7F894EE89FF896083CE
:10041000E889F98980818370806480839FBF81E04F
:1004200090E0DF91CF911F910F91FF90EF90089591
:10043000F62E0B8D10E00F5F1F4F0F731127E02E6C
:100440008C8D8E110CC00FB607FCFACFE889F989A4
:10045000808185FFF5CFCE010E94CF01F1CFEB8DDA
:10046000EC0FFD2FF11DE35AFF4FF0829FB7F89478
:100470000B8FEA89FB8980818062CFCFCF93DF9396
:10048000EC01888D8823B9F0AA89BB89E889F989AC
:100490008C9185FD03C0808186FD0DC00FB607FCE1
:1004A000F7CF8C9185FFF2CF808185FFEDCFCE0114
:1004B0000E94CF01E9CFDF91CF91089580E090E0D5
:1004C000892B29F00E94C50181110E94000080E063
:1004D00090E0892B49F080E090E0892B29F00E9480
:1004E000000081110E94000080E090E0892B49F01B
:1004F00080E090E0892B29F00E94000081110E9489
:10050000000080E090E0892B49F080E090E0892BAA
:1005100029F00E94000081110C9400000895282FFA
:1005200030E0F901E85FFD4F9491F901EE53FE4F81
:10053000449124583E4FF9012491222309F435C0F7
:10054000992311F191509231F8F4E92FF0E08827C6
:10055000E355FD4F8F4F0C940408DE02E202BF0208
:10056000D602DA02C402E502EB02EF02F502F9025A
:10057000FD0203030703C4020B031103150380915B
:1005800080008F7780938000E22FF0E0EE0FFF1F56
:10059000EE59FE4FA591B4918FB7F894EC9161118B
:1005A00048C040954E234C938FBF089580918000A2
:1005B0008F7DE8CF80918000877FE4CF84B58F77EF
:1005C00084BDE2CF84B58F7DFBCF8091B0008F7763
:1005D0008093B000D9CF8091B0008F7DF9CF80910A
:1005E00090008F7780939000CFCF809190008F7D87
:1005F000F9CF80919000877FF5CF8091A0008F7711
:100600008093A000C1CF8091A0008F7DF9CF809111
:10061000A000877FF5CF809120018F778093200104
:10062000B3CF809120018F7DF9CF80912001877F0A
:10063000F5CF4E2BB8CFCF93DF9390E0FC01EE5374
:10064000FE4F249184589E4FFC0184918823D1F061
:1006500090E0880F991FFC01E85BFE4FA591B491D3
:10066000FC01EE59FE4FC591D49161110EC09FB7A8
:10067000F8948C91E22FE0958E238C932881E223CD
:10068000E8839FBFDF91CF9108958FB7F894EC91E5
:10069000E22BEC938FBFF6CF863308F08653209180
:1006A0007B00982F9870277F922B90937B00877008
:1006B000806480937C0080917A00806480937A00CB
:1006C00080917A0086FDFCCF80917800909179002E
:1006D00008953FB7F8948091D9079091DA07A091D7
:1006E000DB07B091DC0726B5A89B05C02F3F19F0AA
:1006F0000196A11DB11D3FBFBA2FA92F982F8827A2
:10070000BC01CD01620F711D811D911D42E0660F7C
:10071000771F881F991F4A95D1F70895CF92DF92CE
:10072000EF92FF920F931F93CF93DF931F921F922D
:10073000CDB7DEB769834A83880F991F0091DA0825
:100740001091DB08000F111FE4E8F8E09F01245826
:1007500038402017310714F41192F8CF2981FC0199
:10076000EC57F74F21838A81808360E08091D8081D
:100770000E948F021016110604F501501109F801AC
:10078000EC57F74FE080D090D608C090D40888E0AE
:10079000F82E6E2D661F6627661F8C2D0E948F0215
:1007A000EE0C61E08D2D0E948F0260E08D2D0E9485
:1007B0008F02FA94F110EDCFDDCF61E08091D8087F
:1007C0000F900F90DF91CF911F910F91FF90EF90BD
:1007D000DF90CF900C948F02EF92FF920F931F93B4
:1007E000CF937C018C0183E0000F111F8A95E1F704
:1007F0000C56174FC1E0F80111928F0140E06C2FA9
:10080000C7010E948E03CF5FC930A9F7CF911F9116
:100810000F91FF90EF9008951F920F920FB60F92D5
:1008200011240BB60F922F933F934F935F936F93C7
:100830007F938F939F93AF93BF93EF93FF9387EE35
:1008400097E00E94CF01FF91EF91BF91AF919F91EF
:100850008F917F916F915F914F913F912F910F9069
:100860000BBE0F900FBE0F901F9018951F920F9206
:100870000FB60F9211240BB60F922F938F939F9365
:10088000EF93FF93E091F707F091F8078081E091F3
:10089000FD07F091FE0782FD1DC090818091000848
:1008A0008F5F8F7320910108821741F0E09100085B
:1008B000F0E0E951F84F958F80930008FF91EF9198
:1008C0009F918F912F910F900BBE0F900FBE0F90A5
:1008D0001F9018958081F2CF1F920F920FB60F9242
:1008E00011242F933F938F939F93AF93BF93809146
:1008F000DD079091DE07A091DF07B091E00730910E
:10090000D80723E0230F2D3758F50196A11DB11DFF
:100910002093D8078093DD079093DE07A093DF072D
:10092000B093E0078091D9079091DA07A091DB0797
:10093000B091DC070196A11DB11D8093D90790935A
:10094000DA07A093DB07B093DC07BF91AF919F91CB
:100950008F913F912F910F900FBE0F901F90189580
:1009600026E8230F0296A11DB11DD2CFCF93DF93AE
:100970001092EA071092E90788EE93E0A0E0B0E059
:100980008093EB079093EC07A093ED07B093EE07ED
:1009900089EC97E09093E8078093E70785EC90E077
:1009A0009093F4078093F30784EC90E09093F6071C
:1009B0008093F50780EC90E09093F8078093F70719
:1009C00081EC90E09093FA078093F90782EC90E035
:1009D0009093FC078093FB0786EC90E09093FE07D2
:1009E0008093FD07109200081092010810920208EF
:1009F00010920308CDE0D0E0D093D508C093D4087E
:100A00008CE090E09093D7088093D60888E090E03F
:100A10009093D9088093D80881E090E09093DB0808
:100A20008093DA0861E08DE00E941B0361E0809111
:100A3000D6080E941B0361E08091D8080E941B0326
:100A400061E08091D8080E948F02D093D508C093AE
:100A5000D408E4E9F8E0119288E0E43DF807D9F71A
:100A6000D0E0C0E08091DA089091DB08C817D90780
:100A700074F540E06FE0CE010E948E038091DA08A9
:100A80009091DB08C817D9072CF447E06BE0CE0142
:100A90000E948E0340E069E0CE010E948E038091A7
:100AA000DA089091DB08C817D9071CF4CE010E9420
:100AB000EC038091DA089091DB08C817D9072CF471
:100AC00040E06CE0CE010E948E032196CBCFDF91F7
:100AD000CF910895789484B5826084BD84B5816097
:100AE00084BD85B5826085BD85B5816085BD8091F9
:100AF0006E00816080936E00109281008091810071
:100B00008260809381008091810081608093810068
:100B1000809180008160809380008091B10084602A
:100B20008093B1008091B00081608093B00080918B
:100B30009100826080939100809191008160809308
:100B40009100809190008160809390008091A1003D
:100B500082608093A1008091A10081608093A100B8
:100B60008091A00081608093A0008091210182602B
:100B700080932101809121018160809321018091E6
:100B8000200181608093200180917A0084608093AD
:100B90007A0080917A00826080937A0080917A0056
:100BA000816080937A0080917A00806880937A00D7
:100BB0001092C100E091F707F091F80782E080837E
:100BC000E091F307F091F4071082E091F507F091BE
:100BD000F6078FEC80831092FF07E091FB07F091FE
:100BE000FC0786E08083E091F907F091FA078081A5
:100BF00080618083E091F907F091FA078081886035
:100C00008083E091F907F091FA0780818068808302
:100C1000E091F907F091FA0780818F7D808360E091
:100C200086E30E941B0360E087E30E941B0305E04C
:100C300012E055E1C52E52E0D52E65E1E62E62E0C8
:100C4000F62EE8018881229661E00E941B03F701DD
:100C50008081F2E0EF0EF11C61E00E941B03CC16D4
:100C6000DD0681F7F80180810E5F1F4F61E00E9471
:100C70008F0245E1E42E42E0F42EF7018081F2E09C
:100C8000EF0EF11C60E00E948F0225E2E21622E0E6
:100C9000F20699F70C171D0729F78091DA08909151
:100CA000DB081816190634F441E06CE090E080E0AF
:100CB0000E948E038091DA089091DB0818161906BD
:100CC00034F448E06AE090E080E00E948E03809176
:100CD000DA089091DB081816190624F490E080E0F9
:100CE0000E94EC0330E8232E312C86E30E944C0353
:100CF000092E000CAA0BBB0B8093000290930102FB
:100D0000A0930202B09303028FB7F8948090DD079E
:100D10009090DE07A090DF07B090E0078FBFD0E093
:100D2000C0E0209739F560E086E10E948F0261E023
:100D300087E10E948F02C230D10539F560E088E179
:100D40000E948F0261E089E10E948F02C430D105C8
:100D500039F560E08AE10E948F0261E08BE10E9438
:100D60008F02C630D10539F560E08CE10E948F0218
:100D700061E029C061E086E10E948F02C130D105A7
:100D8000B1F660E087E10E948F0261E088E10E9495
:100D90008F02C330D105B1F660E089E10E948F0275
:100DA00061E08AE10E948F02C530D105B1F660E0B2
:100DB0008BE10E948F0261E08CE10E948F0260E073
:100DC000C730D105A9F68DE10E948F0210E000E046
:100DD00030EA3C9FC0013D9F900D1124FC01EB5D6A
:100DE000FD4F7F01E091E507F091E607EE0DFF1D55
:100DF000E00FF11FD0806D2D8EE20115110521F05D
:100E00000130110549F48FE20E948F026D2D83E3BA
:100E100005301105E9F006C00230110549F480E300
:100E20000E948F026D2D84E30630110589F006C003
:100E30000330110549F481E30E948F020730110548
:100E400049F46D2D85E304C082E304301105F1F609
:100E50000E948F020F5F1F4F0830110519F60E9484
:100E600069036B017C0122E0422E512C612C712C14
:100E70000E9469036C197D098E099F09683E7340C1
:100E800081059105A8F3F8EECF0EF3E0DF1EE11C1B
:100E9000F11C4A9445284628472829F0412C512C1A
:100EA00032014394E5CF2196C930D10509F039CFFD
:100EB0008091E1079091E207A091E307B091E407E8
:100EC000B501A401481B590B6A0B7B0B80910002F2
:100ED00090910102A0910202B0910302841795073C
:100EE000A607B70708F081C08092E1079092E20759
:100EF000A092E307B092E4078091E5079091E6079E
:100F000020910402222309F467C08F39910509F466
:100F100060C001969093E6078093E507C091E507CE
:100F2000D091E60721974E01C830D1051CF087E02B
:100F3000882E912CC730D10514F4C7E0D0E074019D
:100F4000D12CC12CCB5DDD4F8C149D040CF44DC015
:100F5000C1010E2C02C0959587950A94E2F7682E80
:100F6000782E709408E010E05E01AC0CBD1C8091FE
:100F7000DA089091DB08181619060CF5F7FC1FC06B
:100F8000D801AC57B74F1F968C911F9790E6909F52
:100F9000F001919FF00DF01B1124E750FB4FEA0D7B
:100FA000FB1D90819923F9F086291F968C931F973A
:100FB0001F964C91602F90E080E00E948E030150BC
:100FC0001109A9F6EFEFCE1ADE0AF1E0EF1AF108E7
:100FD000BBCF90E080E09ECF009711F001979ACFB1
:100FE0008EE990E097CF8721E0CF87E30E944C0302
:100FF0001816190634F481E0809304020E945E0200
:1010000074CE10920402FACFEE0FFF1F881F8BBF21
:0C1010000790F691E02D1994F894FFCFA2
:10101C00E80300000116001700180019001A001B45
:10102C00001C001D002E002F003000310032003358
:10103C00003400350000000000000000000000003B
:10104C000000000000000000000000000000000094
:10105C000000000000000000000000000000000084
:10106C000000000000000000000000000000000074
:10107C000000000000000000000000000000000064
:10108C000000000000000000000000000000000054
:10109C000000000000000000000000000000000044
:1010AC000000000000000000000000000000000034
:1010BC000000000000000000000000000000000024
:1010CC000000000000000000000000000000000014
:1010DC000000000000000000000000000000010102
:1010EC0001010101010001000000000000000101EC
:1010FC0000000101010101000001010101010101D8
:10110C0000000101010101010001010101010101C6
:10111C0000000101010101000001000000000000BD
:10112C0000010101010101010001010000010000A9
:10113C000101000001010101010101000001010197
:10114C00010100000001010101010000010000008B
:10115C000000010000010101010100000101010179
:10116C00010101000001010101010100000000006A
:10117C000000000000000000000000000000010161
:10118C00010101010100010000000001000001014A
:10119C000001010101010101000101010101010135
:1011AC000001010101010101000101010101010125
:1011BC00000101010101010100010000000001001A
:1011CC000001010101010101000101000100000108
:1011DC0001010100010101010101010001010101F5
:1011EC0001010100010101010101010001000000E8
:1011FC0000000100010101010101010001010101D7
:10120C0001010100000101010101010100000000C8
:10121C0000000000000000000000000000000000C2
:10122C0001000000010001010101010101000101A7
:10123C00000100000000000100000001000000019E
:10124C00000100000000000000000001000000018F
:10125C000001000000000001000101010101010179
:10126C00000100000000000100010100010000016C
:10127C00000001000100000100000100010000005D
:10128C00000001000100000000000100010101014B
:10129C00010101000100000000000100000000003D
:1012AC00010100000000000100000001000000002E
:1012BC000000000000000000000000000000000022
:1012CC000100000001000101010101010100010107
:1012DC0000010000000000010000000100000001FE
:1012EC0000010000000000000000000100000001EF
:1012FC0000010000000000010001010101010101D9
:10130C0000010000000000010001010001000001CB
:10131C0000000100010000010000010001000000BC
:10132C0000000100010000000000010001010101AA
:10133C00010101000100000000000100000000019B
:10134C00000000000000000100000001000000008F
:10135C000000000000000000000000000000000081
:10136C00010000000100010000000000000001016C
:10137C00000100010000000100000001000000015C
:10138C00000100000000000000000001000000014E
:10139C00000100000000000100010000000000003E
:1013AC000001000000000001000101000101010129
:1013BC00000001000100000100000100010000001C
:1013CC00000001000100000000000100010000000D
:1013DC0000000100010000000000010000010100FC
:1013EC0000000000000000010000000100000000EF
:1013FC0000000000000000000000000000000000E1
:10140C0000010101000001000000000000000101CA
:10141C0000000101000001000001010001010100B8
:10142C0000000101010101010000000001010100A7
:10143C00000001010101010000010000000000009A
:10144C000001010101010101000101000001010085
:10145C00000100000100000100000100000100007B
:10146C00000100000001000000010000010000006C
:10147C000000010000010101010100000101010156
:10148C000101010000010101010101000000000047
:10149C000000000000000000000000000000000040
:1014AC000000000000000000000000000000000030
:1014BC000000000000000000000000000000000020
:1014CC000000000000000000000000000000000010
:1014DC000000000000000000000000000000000000
:1014EC0000000000000000000000000000000000F0
:1014FC0000000000000000000000000000000000E0
:10150C0000000000000000000000000000000000CF
:10151C0000000000000000000000000000000000BF
:10152C0000000000000000000000000000000000AF
:10153C00000000000000000000000000000000009F
:10154C00000000000000000000000000000000008F
:10155C00000000000000000000000000000000007F
:10156C00000000000000000000000000000000006F
:10157C00000000000000000000000000000000005F
:10158C00000000000000000000000000000000004F
:10159C00000000000000000000000000000000003F
:1015AC00000000000000000000000000000000002F
:1015BC00000000000000000000000000000000001F
:1015CC00000000000000000000000000000000000F
:1015DC00000000000000000000F1015B0188013EEA
:0815EC0002B9019701AB0100F7
:00000001FF
