:100000000C9428010C9459010C9459010C94590139
:100010000C9459010C9459010C9459010C945901F8
:100020000C9459010C9459010C9459010C945901E8
:100030000C9459010C9459010C9459010C945901D8
:100040000C9459010C9459010C9459010C945901C8
:100050000C9459010C9459010C9459010C944F04BF
:100060000C9459010C9419040C94EF030C9459014D
:100070000C9459010C9459010C9459010C94590198
:100080000C9459010C9459010C9459010C94590188
:100090000C9459010C9459010C9459010C94590178
:1000A0000C9459010C9459010C9459010C94590168
:1000B0000C9459010C9459010C9459010C94590158
:1000C0000C9459010C9459010C9459010C94590148
:1000D0000C9459010C9459010C9459010C94590138
:1000E0000C9459010C94BF020C94EF020C9407037A
:1000F0000C943E020C94AB010C9403030C94EB02A1
:100100000C94B9010C9488010C94D6020C940B0346
:100110000C94DE020C94E2020C94F9020C94990403
:100120000C945B010C94F5020C9497010C94DA0288
:100130000C9415030C94C4020C9411030C94FD024E
:100140000C94F1010C94E50200002100240027002A
:100150002A002D00300033000101000004010701D6
:100160000A0100002200250028002B002E0031008B
:10017000340002010000050108010B010505050519
:10018000070508080808020202020A0A080804040F
:10019000040401010101010101010303030303033D
:1001A0000303040707070C0C0C0C0C0C0C0C0202CC
:1001B000020206060606060606060B0B0B0B0B0BC9
:1001C0000B0B010210202008081020401020408056
:1001D000020102010804020101020408102040800B
:1001E0008040201008040201800402018040201099
:1001F00008040201080402010102040810204080E2
:10020000010204081020408000000A0B02090C0DB6
:100210000E080703040100000000000000000000B9
:1002200000000000000000000000000000000000CE
:10023000000000001211100000000000000000008B
:100240000000000000000000000000000000990411
:1002500011241FBECFEFD1E2DEBFCDBF00E00CBF47
:1002600016E0A0E0B2E0E8E0FFE000E00BBF02C073
:1002700007900D92A230B107D9F727E0A2E0B6E0CF
:1002800001C01D92A630B207E1F711E0C8E2D1E04B
:1002900000E006C021970109802FFE010E947A0725
:1002A000C732D10780E00807A9F70E944D050C94DA
:1002B00082070C940000AF92BF92CF92DF92EF9230
:1002C000FF920F931F93CF93DF936C017B018B0100
:1002D000040F151FEB015E01AE18BF08C017D10750
:1002E00059F06991D601ED91FC910190F081E02DDA
:1002F000C6011995892B79F7C501DF91CF911F911F
:100300000F91FF90EF90DF90CF90BF90AF90089546
:10031000FC01538D448D252F30E0842F90E0821B0B
:10032000930B541710F0CF96089501970895FC0190
:10033000918D828D981761F0A28DAE0FBF2FB11DE8
:100340005D968C91928D9F5F9F73928F90E0089540
:100350008FEF9FEF0895FC01918D828D981731F0FA
:10036000828DE80FF11D858D90E008958FEF9FEF4E
:100370000895FC01918D228D892F90E0805C9F4F24
:10038000821B91098F739927089581E196E00E945D
:10039000B90121E0892B09F420E0822F0895FC01A6
:1003A000A48DA80FB92FB11DA35ABF4F2C91848DD6
:1003B00090E001968F739927848FA689B7892C9333
:1003C000A089B1898C91837080648C93938D848D86
:1003D000981306C00288F389E02D80818F7D808389
:1003E0000895EF92FF920F931F93CF93DF93EC0149
:1003F00081E0888F9B8D8C8D98131AC0E889F989CC
:10040000808185FF15C09FB7F894EE89FF896083CE
:10041000E889F98980818370806480839FBF81E04F
:1004200090E0DF91CF911F910F91FF90EF90089591
:10043000F62E0B8D10E00F5F1F4F0F731127E02E6C
:100440008C8D8E110CC00FB607FCFACFE889F989A4
:10045000808185FFF5CFCE010E94CF01F1CFEB8DDA
:10046000EC0FFD2FF11DE35AFF4FF0829FB7F89478
:100470000B8FEA89FB8980818062CFCFCF93DF9396
:10048000EC01888D8823B9F0AA89BB89E889F989AC
:100490008C9185FD03C0808186FD0DC00FB607FCE1
:1004A000F7CF8C9185FFF2CF808185FFEDCFCE0114
:1004B0000E94CF01E9CFDF91CF91089580E090E0D5
:1004C000892B29F00E94C50181110E94000080E063
:1004D00090E0892B49F080E090E0892B29F00E9480
:1004E000000081110E94000080E090E0892B49F01B
:1004F00080E090E0892B29F00E94000081110E9489
:10050000000080E090E0892B49F080E090E0892BAA
:1005100029F00E94000081110C9400000895282FFA
:1005200030E0F901E85FFD4F9491F901EE53FE4F81
:10053000449124583E4FF9012491222309F435C0F7
:10054000992311F191509231F8F4E92FF0E08827C6
:10055000E355FD4F8F4F0C947A07DE02E202BF0293
:10056000D602DA02C402E502EB02EF02F502F9025A
:10057000FD0203030703C4020B031103150380915B
:1005800080008F7780938000E22FF0E0EE0FFF1F56
:10059000EE59FE4FA591B4918FB7F894EC9161118B
:1005A00048C040954E234C938FBF089580918000A2
:1005B0008F7DE8CF80918000877FE4CF84B58F77EF
:1005C00084BDE2CF84B58F7DFBCF8091B0008F7763
:1005D0008093B000D9CF8091B0008F7DF9CF80910A
:1005E00090008F7780939000CFCF809190008F7D87
:1005F000F9CF80919000877FF5CF8091A0008F7711
:100600008093A000C1CF8091A0008F7DF9CF809111
:10061000A000877FF5CF809120018F778093200104
:10062000B3CF809120018F7DF9CF80912001877F0A
:10063000F5CF4E2BB8CFCF93DF9390E0FC01EE5374
:10064000FE4F249184589E4FFC0184918823D1F061
:1006500090E0880F991FFC01E85BFE4FA591B491D3
:10066000FC01EE59FE4FC591D49161110EC09FB7A8
:10067000F8948C91E22FE0958E238C932881E223CD
:10068000E8839FBFDF91CF9108958FB7F894EC91E5
:10069000E22BEC938FBFF6CF3FB7F894809103061F
:1006A00090910406A0910506B091060626B5A89B78
:1006B00005C02F3F19F00196A11DB11D3FBFBA2FF4
:1006C000A92F982F8827BC01CD01620F711D811DB4
:1006D000911D42E0660F771F881F991F4A95D1F739
:1006E0000895CF92DF92EF92FF920F931F93CF93D3
:1006F000DF931F921F92CDB7DEB769834A83880FBD
:10070000991F0091040710910507000F111FEEEAD1
:10071000F6E09F012E5A36402017310714F411924B
:10072000F8CF2981FC01E255F94F21838A8180832A
:1007300060E0809102070E948F021016110604F5F6
:1007400001501109F801E255F94FE080D0900007FF
:10075000C090FE0688E0F82E6E2D661F6627661F85
:100760008C2D0E948F02EE0C61E08D2D0E948F0275
:1007700060E08D2D0E948F02FA94F110EDCFDDCF55
:1007800061E0809102070F900F90DF91CF911F9150
:100790000F91FF90EF90DF90CF900C948F02EF922B
:1007A000FF920F931F93CF937C018C0183E0000F86
:1007B000111F8A95E1F70254194FC1E0F801119217
:1007C0008F0140E06C2FC7010E947103CF5FC930D9
:1007D000A9F7CF911F910F91FF90EF9008951F926D
:1007E0000F920FB60F9211240BB60F922F933F93D7
:1007F0004F935F936F937F938F939F93AF93BF9329
:10080000EF93FF9381E196E00E94CF01FF91EF917A
:10081000BF91AF919F918F917F916F915F914F9118
:100820003F912F910F900BBE0F900FBE0F901F9016
:1008300018951F920F920FB60F9211240BB60F92BC
:100840002F938F939F93EF93FF93E0912106F09165
:1008500022068081E0912706F091280682FD1DC0C6
:10086000908180912A068F5F8F7320912B068217CB
:1008700041F0E0912A06F0E0EF5EF94F958F80930A
:100880002A06FF91EF919F918F912F910F900BBEB0
:100890000F900FBE0F901F9018958081F2CF1F927E
:1008A0000F920FB60F9211242F933F938F939F9324
:1008B000AF93BF938091070690910806A091090617
:1008C000B0910A063091020623E0230F2D3758F528
:1008D0000196A11DB11D20930206809307069093F7
:1008E0000806A0930906B0930A068091030690912A
:1008F0000406A0910506B09106060196A11DB11D42
:100900008093030690930406A0930506B093060611
:10091000BF91AF919F918F913F912F910F900FBEFB
:100920000F901F90189526E8230F0296A11DB11D68
:10093000D2CFCF93DF93109214061092130688EE55
:1009400093E0A0E0B0E08093150690931606A09384
:100950001706B093180684EF95E0909312068093E3
:10096000110685EC90E090931E0680931D0684ECA2
:1009700090E09093200680931F0680EC90E0909387
:1009800022068093210681EC90E0909324068093C8
:10099000230682EC90E0909326068093250686EC51
:1009A00090E0909328068093270610922A061092D2
:1009B0002B0610922C0610922D06CDE0D0E0D0939D
:1009C000FF06C093FE068CE090E0909301078093B1
:1009D000000788E090E0909303078093020781E08E
:1009E00090E0909305078093040761E08DE00E94FA
:1009F0001B0361E0809100070E941B0361E080916E
:100A000002070E941B0361E0809102070E948F028F
:100A1000D093FF06C093FE06EEEBF6E0119286E05F
:100A2000EE3FF807D9F7D0E0C0E08091040790913D
:100A30000507C817D90774F540E06FE0CE010E94A2
:100A400071038091040790910507C817D9072CF40A
:100A500047E06BE0CE010E94710340E069E0CE0107
:100A60000E9471038091040790910507C817D90768
:100A70001CF4CE010E94CF038091040790910507DA
:100A8000C817D9072CF440E06CE0CE010E94710336
:100A90002196CBCFDF91CF910895789484B5826071
:100AA00084BD84B5816084BD85B5826085BD85B512
:100AB000816085BD80916E00816080936E00109290
:100AC000810080918100826080938100809181000B
:100AD000816080938100809180008160809380009C
:100AE0008091B10084608093B1008091B0008160FA
:100AF0008093B000809191008260809391008091FA
:100B0000910081608093910080919000816080933A
:100B100090008091A10082608093A1008091A1004B
:100B200081608093A1008091A00081608093A000EB
:100B30008091210182608093210180912101816057
:100B40008093210180912001816080932001809118
:100B50007A00846080937A0080917A00826080932A
:100B60007A0080917A00816080937A0080917A0087
:100B7000806880937A001092C100E0912106F09184
:100B8000220682E08083E0911D06F0911E0610820D
:100B9000E0911F06F09120068FEC808310922906C9
:100BA000E0912506F091260686E08083E0912306F9
:100BB000F0912406808180618083E0912306F0918A
:100BC0002406808188608083E0912306F0912406CA
:100BD000808180688083E0912306F09124068081E3
:100BE0008F7D808360E086E30E941B0304E012E0B7
:100BF00074E1E72E72E0F72EE8018881229661E029
:100C00000E941B03F7018081F2E0EF0EF11C61E00E
:100C10000E941B0322E0C431D20779F764E2C62E9A
:100C200062E0D62EF80180810E5F1F4F61E00E94C6
:100C30008F0254E1E52E52E0F52EF7018081F2E0BB
:100C4000EF0EF11C60E00E948F02CE14DF04A9F7C2
:100C5000C017D10739F7809104079091050718163E
:100C6000190634F441E06CE090E080E00E947103EA
:100C700080910407909105071816190634F448E08E
:100C80006AE090E080E00E947103809104079091F7
:100C900005071816190624F490E080E00E94CF039F
:100CA00030E4632E46E3742E80917B00877F80932F
:100CB0007B0060927C0080917A00806480937A004F
:100CC00080917A0086FDFCCF909178008091790028
:100CD000892798278927092E000CAA0BBB0B809324
:100CE000000290930102A0930202B09303028FB717
:100CF000F8948090070690900806A0900906B0909E
:100D00000A068FBFD0E0C0E0209739F560E086E1A9
:100D10000E948F0261E087E10E948F02C230D105FC
:100D200039F560E088E10E948F0261E089E10E946C
:100D30008F02C430D10539F560E08AE10E948F024C
:100D400061E08BE10E948F02C630D10539F560E089
:100D50008CE10E948F0261E029C061E086E10E947F
:100D60008F02C130D105B1F660E087E10E948F02A9
:100D700061E088E10E948F02C330D105B1F660E0E6
:100D800089E10E948F0261E08AE10E948F02C530F2
:100D9000D105B1F660E08BE10E948F0261E08CE149
:100DA0000E948F0260E0C730D105A9F68DE10E9454
:100DB0008F0210E000E07C9E70017D9EF00C1124FB
:100DC000E0910F06F0911006E00FF11FEE0DFF1DF0
:100DD000EE0FFF1FEC5DFD4FD0806D2D8EE20115F3
:100DE000110521F00130110549F48FE20E948F02B4
:100DF0006D2D83E305301105E9F006C002301105C1
:100E000049F480E30E948F026D2D84E306301105C2
:100E100089F006C00330110549F481E30E948F0276
:100E20000730110549F46D2D85E304C082E30430D9
:100E30001105F1F60E948F020F5F1F4F0830110558
:100E400009F0BECF0E944C036B017C0192E0292E79
:100E5000312C412C512C0E944C036C197D098E09B8
:100E60009F09683E734081059105A8F328EEC20EE4
:100E700023E0D21EE11CF11C2A94232824282528D3
:100E800029F0212C312C21012394E5CF2196C93062
:100E9000D10509F039CF80910B0690910C06A091F5
:100EA0000D06B0910E06B501A401481B590B6A0B43
:100EB0007B0B8091000290910102A0910202B091FF
:100EC000030284179507A607B70788F480920B06DC
:100ED00090920C06A0920D06B0920E0680910F061D
:100EE0009091100601969093100680930F060E9431
:100EF0005E02DACEEE0FFF1F881F8BBF0790F691C0
:080F0000E02D1994F894FFCFD5
:100F0800E803000016001700180019001A001B005B
:100F18001C001D002E002F0030003100320033006D
:100F28003400350000000000000000000000000050
:100F380000000000000000000000000000000000A9
:100F48000000000000000100000000000000000098
:100F58000000010000000000000000000000000088
:100F68000000010000000000000000000000000078
:100F78000000000000000000000000000000000069
:100F88000000000000000000000000000000000059
:100F98000000010000000000000001000000000047
:100FA8000100010000000000010001000100000034
:100FB8000000000000000000010001000000010026
:100FC8000000010001000000000000000000000017
:100FD8000000010001000100000000000100010004
:100FE80001000000000001000100000000000000F6
:100FF80001000100000000000000000000000100E6
:1010080001000000010001000000010000000000D4
:1010180001000000010000000000010000000100C4
:1010280000000100000000000100000001000000B5
:1010380000000100000000000000010000000100A5
:101048000000000001000000010000000000000096
:101058000100000000000100000001000000000085
:101068000100000000000000000001000000010075
:101078000000010000000100000000000100000065
:101088000100000000000100000001000000010054
:101098000000000001000000010000000000000046
:1010A8000000000000000100000001000000000036
:1010B8000100000001000000000000000100000025
:1010C8000000010000000100000000000000000016
:1010D8000000000000000100000000000000010006
:1010E80000000100010001000100000001000100F2
:1010F80001000000000001000000010000000000E5
:1011080001000000000001000100000000000000D4
:1011180000000100000001000000000001000000C4
:1011280001000100010000000100010001000100B0
:1011380000000000010001000000000000000000A5
:101148000000010000000000000001000000010094
:101158000000000001000000010000000000010084
:101168000000010000000100000000000100000074
:101178000000000000000100000000000000010065
:101188000000010000000000010000000100000054
:101198000000000001000000000001000000000045
:1011A8000000000001000000000000000000010035
:1011B8000000000000000100000001000000000025
:1011C8000100000001000000000001000000010013
:1011D8000000000001000100000000000100000004
:1011E80000000100000000000000010000000100F4
:1011F80001000100000000000100000000000000E4
:1012080001000000000001000000010000000000D3
:1012180001000000000000000000000000000000C5
:1012280000000000000000000000000000000000B6
:1012380000000000000000000000000000000000A6
:101248000000000000000000000001000100000094
:101258000000000000000000000000000000000086
:101268000000000001000100010000000000000073
:101278000000000000000000010001000000000064
:101288000000000000000000000000000000000056
:101298000000000000000000000000000000000046
:1012A8000000000000000000000000000000000036
:1012B8000000000000000000000000000000000026
:1012C8000000000000000000000000000000000016
:1012D8000000000000000000000000000000000006
:1012E80000000000000000000000000000000000F6
:1012F80000000000F1015B0188013E02B90197017D
:02130800AB0137
:00000001FF
