:100000000C9428010C9459010C9459010C94590139
:100010000C9459010C9459010C9459010C945901F8
:100020000C9459010C9459010C9459010C945901E8
:100030000C9459010C9459010C9459010C945901D8
:100040000C9459010C9459010C9459010C945901C8
:100050000C9459010C9459010C9459010C944F04BF
:100060000C9459010C9419040C94EF030C9459014D
:100070000C9459010C9459010C9459010C94590198
:100080000C9459010C9459010C9459010C94590188
:100090000C9459010C9459010C9459010C94590178
:1000A0000C9459010C9459010C9459010C94590168
:1000B0000C9459010C9459010C9459010C94590158
:1000C0000C9459010C9459010C9459010C94590148
:1000D0000C9459010C9459010C9459010C94590138
:1000E0000C9459010C94DA020C94E5020C9411035F
:1000F0000C9499040C94F1010C9415030C940B03CB
:100100000C9403030C94DE020C94D6020C94EB02C4
:100110000C94EF020C943E020C94C4020C94FD0269
:100120000C94AB010C9407030C94BF020C9488014F
:100130000C94F9020C94E2020C945B010C9497016C
:100140000C94B9010C94F502000021002400270052
:100150002A002D00300033000101000004010701D6
:100160000A0100002200250028002B002E0031008B
:10017000340002010000050108010B010505050519
:10018000070508080808020202020A0A080804040F
:10019000040401010101010101010303030303033D
:1001A0000303040707070C0C0C0C0C0C0C0C0202CC
:1001B000020206060606060606060B0B0B0B0B0BC9
:1001C0000B0B010210202008081020401020408056
:1001D000020102010804020101020408102040800B
:1001E0008040201008040201800402018040201099
:1001F00008040201080402010102040810204080E2
:10020000010204081020408000000A0B02090C0DB6
:100210000E080703040100000000000000000000B9
:1002200000000000000000000000000000000000CE
:10023000000000001211100000000000000000008B
:100240000000000000000000000000000000990411
:1002500011241FBECFEFD1E2DEBFCDBF00E00CBF47
:1002600017E0A0E0B2E0E0E5F0E100E00BBF02C083
:1002700007900D92AE38B107D9F728E0AEE8B7E0A5
:1002800001C01D92A439B207E1F711E0C8E2D1E044
:1002900000E006C021970109802FFE010E941E0880
:1002A000C732D10780E00807A9F70E944D050C94DA
:1002B00026080C940000AF92BF92CF92DF92EF928B
:1002C000FF920F931F93CF93DF936C017B018B0100
:1002D000040F151FEB015E01AE18BF08C017D10750
:1002E00059F06991D601ED91FC910190F081E02DDA
:1002F000C6011995892B79F7C501DF91CF911F911F
:100300000F91FF90EF90DF90CF90BF90AF90089546
:10031000FC01538D448D252F30E0842F90E0821B0B
:10032000930B541710F0CF96089501970895FC0190
:10033000918D828D981761F0A28DAE0FBF2FB11DE8
:100340005D968C91928D9F5F9F73928F90E0089540
:100350008FEF9FEF0895FC01918D828D981731F0FA
:10036000828DE80FF11D858D90E008958FEF9FEF4E
:100370000895FC01918D228D892F90E0805C9F4F24
:10038000821B91098F73992708958FE997E00E9446
:10039000B90121E0892B09F420E0822F0895FC01A6
:1003A000A48DA80FB92FB11DA35ABF4F2C91848DD6
:1003B00090E001968F739927848FA689B7892C9333
:1003C000A089B1898C91837080648C93938D848D86
:1003D000981306C00288F389E02D80818F7D808389
:1003E0000895EF92FF920F931F93CF93DF93EC0149
:1003F00081E0888F9B8D8C8D98131AC0E889F989CC
:10040000808185FF15C09FB7F894EE89FF896083CE
:10041000E889F98980818370806480839FBF81E04F
:1004200090E0DF91CF911F910F91FF90EF90089591
:10043000F62E0B8D10E00F5F1F4F0F731127E02E6C
:100440008C8D8E110CC00FB607FCFACFE889F989A4
:10045000808185FFF5CFCE010E94CF01F1CFEB8DDA
:10046000EC0FFD2FF11DE35AFF4FF0829FB7F89478
:100470000B8FEA89FB8980818062CFCFCF93DF9396
:10048000EC01888D8823B9F0AA89BB89E889F989AC
:100490008C9185FD03C0808186FD0DC00FB607FCE1
:1004A000F7CF8C9185FFF2CF808185FFEDCFCE0114
:1004B0000E94CF01E9CFDF91CF91089580E090E0D5
:1004C000892B29F00E94C50181110E94000080E063
:1004D00090E0892B49F080E090E0892B29F00E9480
:1004E000000081110E94000080E090E0892B49F01B
:1004F00080E090E0892B29F00E94000081110E9489
:10050000000080E090E0892B49F080E090E0892BAA
:1005100029F00E94000081110C9400000895282FFA
:1005200030E0F901E85FFD4F9491F901EE53FE4F81
:10053000449124583E4FF9012491222309F435C0F7
:10054000992311F191509231F8F4E92FF0E08827C6
:10055000E355FD4F8F4F0C941E08DE02E202BF02EE
:10056000D602DA02C402E502EB02EF02F502F9025A
:10057000FD0203030703C4020B031103150380915B
:1005800080008F7780938000E22FF0E0EE0FFF1F56
:10059000EE59FE4FA591B4918FB7F894EC9161118B
:1005A00048C040954E234C938FBF089580918000A2
:1005B0008F7DE8CF80918000877FE4CF84B58F77EF
:1005C00084BDE2CF84B58F7DFBCF8091B0008F7763
:1005D0008093B000D9CF8091B0008F7DF9CF80910A
:1005E00090008F7780939000CFCF809190008F7D87
:1005F000F9CF80919000877FF5CF8091A0008F7711
:100600008093A000C1CF8091A0008F7DF9CF809111
:10061000A000877FF5CF809120018F778093200104
:10062000B3CF809120018F7DF9CF80912001877F0A
:10063000F5CF4E2BB8CFCF93DF9390E0FC01EE5374
:10064000FE4F249184589E4FFC0184918823D1F061
:1006500090E0880F991FFC01E85BFE4FA591B491D3
:10066000FC01EE59FE4FC591D49161110EC09FB7A8
:10067000F8948C91E22FE0958E238C932881E223CD
:10068000E8839FBFDF91CF9108958FB7F894EC91E5
:10069000E22BEC938FBFF6CF3FB7F89480918F0792
:1006A00090919007A0919107B091920726B5A89BD1
:1006B00005C02F3F19F00196A11DB11D3FBFBA2FF4
:1006C000A92F982F8827BC01CD01620F711D811DB4
:1006D000911D42E0660F771F881F991F4A95D1F739
:1006E0000895CF92DF92EF92FF920F931F93CF93D3
:1006F000DF931F921F92CDB7DEB769834A83880FBD
:10070000991F0091920810919308000F111FECE3BC
:10071000F8E09F012C5338402017310714F4119250
:10072000F8CF2981FC01E45CF74F21838A81808323
:1007300060E0809190080E948F021016110604F567
:1007400001501109F801E45CF74FE080D0908E0869
:10075000C0908C0888E0F82E6E2D661F6627661FF5
:100760008C2D0E948F02EE0C61E08D2D0E948F0275
:1007700060E08D2D0E948F02FA94F110EDCFDDCF55
:1007800061E0809190080F900F90DF91CF911F91C1
:100790000F91FF90EF90DF90CF900C948F02EF922B
:1007A000FF920F931F93CF937C018C0183E0000F86
:1007B000111F8A95E1F7045B174FC1E0F801119210
:1007C0008F0140E06C2FC7010E947103CF5FC930D9
:1007D000A9F7CF911F910F91FF90EF9008951F926D
:1007E0000F920FB60F9211240BB60F922F933F93D7
:1007F0004F935F936F937F938F939F93AF93BF9329
:10080000EF93FF938FE997E00E94CF01FF91EF9163
:10081000BF91AF919F918F917F916F915F914F9118
:100820003F912F910F900BBE0F900FBE0F901F9016
:1008300018951F920F920FB60F9211240BB60F92BC
:100840002F938F939F93EF93FF93E091AF07F091D6
:10085000B0078081E091B507F091B60782FD1DC019
:1008600090818091B8078F5F8F732091B9078217AD
:1008700041F0E091B807F0E0E156F84F958F809392
:10088000B807FF91EF919F918F912F910F900BBE21
:100890000F900FBE0F901F9018958081F2CF1F927E
:1008A0000F920FB60F9211242F933F938F939F9324
:1008B000AF93BF938091930790919407A091950770
:1008C000B091960730918E0723E0230F2D3758F50E
:1008D0000196A11DB11D20938E07809393079093DD
:1008E0009407A0939507B093960780918F079091F6
:1008F0009007A0919107B09192070196A11DB11D9B
:1009000080938F0790939007A0939107B0939207DD
:10091000BF91AF919F918F913F912F910F900FBEFB
:100920000F901F90189526E8230F0296A11DB11D68
:10093000D2CFCF93DF931092A2071092A10788EE37
:1009400093E0A0E0B0E08093A3079093A407A09366
:10095000A507B093A60780E897E09093A00780933F
:100960009F0785EC90E09093AC078093AB0784ECF5
:1009700090E09093AE078093AD0780EC90E0909369
:10098000B0078093AF0781EC90E09093B20780931B
:10099000B10782EC90E09093B4078093B30786ECA4
:1009A00090E09093B6078093B5071092B807109225
:1009B000B9071092BA071092BB07CDE0D0E0D093F0
:1009C0008D08C0938C088CE090E090938F08809302
:1009D0008E0888E090E0909391088093900881E0E1
:1009E00090E0909393088093920861E08DE00E94DC
:1009F0001B0361E080918E080E941B0361E08091DF
:100A000090080E941B0361E0809190080E948F0271
:100A1000D0938D08C0938C08ECE4F8E0119288E044
:100A2000EC38F807D9F7D0E0C0E0809192089091B7
:100A30009308C817D90774F540E06FE0CE010E9413
:100A400071038091920890919308C817D9072CF4EC
:100A500047E06BE0CE010E94710340E069E0CE0107
:100A60000E9471038091920890919308C817D9074A
:100A70001CF4CE010E94CF038091920890919308BC
:100A8000C817D9072CF440E06CE0CE010E94710336
:100A90002196CBCFDF91CF910895CF93DF9300D0F4
:100AA0001F92CDB7DEB7789484B5826084BD84B5DB
:100AB000816084BD85B5826085BD85B5816085BD59
:100AC00080916E00816080936E0010928100809111
:100AD0008100826080938100809181008160809399
:100AE0008100809180008160809380008091B100BE
:100AF00084608093B1008091B00081608093B000E9
:100B0000809191008260809391008091910081603A
:100B100080939100809190008160809390008091FB
:100B2000A10082608093A1008091A10081608093E8
:100B3000A1008091A00081608093A000809121019C
:100B40008260809321018091210181608093210145
:100B50008091200181608093200180917A008460DF
:100B600080937A0080917A00826080937A008091ED
:100B70007A00816080937A0080917A008068809307
:100B80007A001092C100E091AF07F091B00782E0C7
:100B90008083E091AB07F091AC071082E091AD0744
:100BA000F091AE078FEC80831092B707E091B30706
:100BB000F091B40786E08083E091B107F091B2072D
:100BC000808180618083E091B107F091B2078081DC
:100BD00088608083E091B107F091B20780818068DE
:100BE0008083E091B107F091B20780818F7D80838F
:100BF00060E086E30E941B0304E012E074E1C72E6C
:100C000072E0D72EE4E1EE2EE2E0FE2E1C830B8391
:100C1000EB81FC8180813296FC83EB8361E00E9452
:100C20001B03F7018081F2E0EF0EF11C61E00E94EE
:100C30001B032B813C81C216D30651F764E2C62EFA
:100C400062E0D62EF80180810E5F1F4F61E00E94A6
:100C50008F0254E1E52E52E0F52EF7018081F2E09B
:100C6000EF0EF11C60E00E948F02CE14DF04A9F7A2
:100C70002B813C810217130729F7809192089091EC
:100C800093081816190634F441E06CE090E080E017
:100C90000E9471038091920890919308181619068A
:100CA00034F448E06AE090E080E00E9471038091B3
:100CB0009208909193081816190624F490E080E0A9
:100CC0000E94CF0340E8242E312C80917B00877F47
:100CD00080937B0030E430937C0080917A008064C4
:100CE00080937A0080917A0086FDFCCF9091780005
:100CF00080917900892798278927092E000CAA0B53
:100D0000BB0B8093000290930102A0930202B09368
:100D100003028FB7F8944090930750909407609027
:100D20009507709096078FBF10E000E00115110540
:100D300039F560E086E10E948F0261E087E10E9460
:100D40008F020230110539F560E088E10E948F02C0
:100D500061E089E10E948F020430110539F560E0FD
:100D60008AE10E948F0261E08BE10E948F020630CF
:100D7000110539F560E08CE10E948F0261E029C025
:100D800061E086E10E948F0201301105B1F660E05A
:100D900087E10E948F0261E088E10E948F020330A8
:100DA0001105B1F660E089E10E948F0261E08AE1FD
:100DB0000E948F0205301105B1F660E08BE10E94C0
:100DC0008F0261E08CE10E948F0260E00730110524
:100DD000A9F68DE10E948F021C821B82E8E9E09F48
:100DE000C001E19F900D11249C012C5D3D4F7901C4
:100DF000E0919D07F0919E07EE0DFF1D8B819C8178
:100E0000E80FF91FD080892B61F46D2D8EE20E94CE
:100E10008F022B813C816D2D83E32530310569F1F3
:100E200010C0EB81FC81319719F46D2D8FE2EFCF6B
:100E30002B813C812230310559F46D2D80E30E94D5
:100E40008F028B819C81069759F46D2D84E315C028
:100E50008B819C81039759F46D2D81E30E948F0251
:100E6000EB81FC81379759F46D2D85E306C0EB814A
:100E7000FC816D2D82E3349761F60E948F022B81F5
:100E80003C812F5F3F4F3C832B832830310509F095
:100E9000AFCF0E944C036B017C0132E0832E912C7A
:100EA000A12CB12C0E944C036C197D098E099F095D
:100EB000683E734081059105A8F338EEC30E33E018
:100EC000D31EE11CF11C8A9489288A288B2829F0DA
:100ED000812C912C54018394E5CF0F5F1F4F093073
:100EE000110509F023CF8091990790919A07A0915D
:100EF0009B07B0919C07B301A201481B590B6A0BD9
:100F00007B0B8091000290910102A0910202B091AE
:100F1000030284179507A607B70798F4409299072C
:100F200050929A0760929B0770929C0780919D0750
:100F300090919E078739910539F410929E0710927F
:100F40009D070E945E02C1CE019690939E078093FA
:100F50009D0718161906ACF700919707109198078E
:100F60004801083011051CF097E0892E912CC8012A
:100F70000730110514F487E090E06401B12CA12C36
:100F80009C012C5D3D4F29018A149B040CF448C040
:100F9000C1010C2C02C0959587950A94E2F78983CC
:100FA000382F30953A8388E0E82EF12C32016A0C14
:100FB0007B1C80919208909193081816190614F5DD
:100FC000D7FC20C0D701A45CB74F1F968C911F9708
:100FD00098E69E9DF0019F9DF00DFE191124E754A7
:100FE000FB4FE60DF71D90819923B9F0E9818E2B17
:100FF0001F968C931F971F964C916E2D90E080E06A
:101000000E94710321E0E21AF10899F63FEFA31A5A
:10101000B30A81E0C81AD108B7CFFA818F23E8CF8D
:101020000E39110524F4F8013196FC83EB832B81F2
:101030003C81309398072093970783CFEE0FFF1FD3
:10104000881F8BBF0790F691E02D1994F894FFCF7D
:10105000E803000016001700180019001A001B0012
:101060001C001D002E002F00300031003200330024
:101070003400350000000000000000000000000007
:101080000000000000000000000000000000000060
:101090000000000000000000000000000000000050
:1010A0000000000000000000000000000000000040
:1010B0000000000000000000000000000000000030
:1010C0000000000000000000000000000000000020
:1010D0000000000000000000000000000000000010
:1010E0000000000000000000000000000000000000
:1010F00000000000000000000000000000000000F0
:1011000000000000000000000000000000000000DF
:1011100000000000000101010101010100010000C7
:1011200000000000000101000001010101010000B8
:1011300001010101010101000001010101010100A2
:101140000101010101010100000101010101000093
:101150000100000000000000010101010101010087
:101160000101000001000001010000010101010175
:101170000101000001010101010000000101010164
:101180000100000100000000000100000101010158
:101190000100000101010101010100000101010143
:1011A000010100000000000000000000000101013A
:1011B0000101010100010000000001000001010027
:1011C0000101010101010100010101010101010011
:1011D0000101010101010100010101010101010001
:1011E00001010101010101000100000000010000F6
:1011F00001010101010101000101000100000101E3
:1012000001010001010101010101000101010101D0
:1012100001010001010101010101000100000000C4
:1012200000010001010101010101000101010101B1
:1012300001010000010101010101010000000000A5
:101240000000000000000001000000010001010199
:101250000101010100010100010000000000010086
:10126000000001000000010001000000000000007B
:10127000000001000000010001000000000001006A
:101280000101010101010100010000000000010055
:101290000101000100000100000100010000010047
:1012A000000100010000000000010001000000003A
:1012B0000001000101010101010100010000000025
:1012C000000100000000000101000000000001001A
:1012D000000001000000000000000000000000010C
:1012E00000000001000101010101010100010100F4
:1012F00001000000000001000000010000000100EA
:1013000001000000000000000000010000000100DA
:1013100001000000000001000101010101010100C4
:1013200001000000000001000101000100000100B7
:1013300000010001000001000001000100000000A8
:101340000001000100000000000100010101010195
:101350000101000100000000000100000000010088
:10136000000000000000010000000100000000007B
:10137000000000000000000100000001000100006A
:101380000000000000010100010001000000010058
:10139000000001000000010001000000000000004A
:1013A0000000010000000100010000000000010039
:1013B000010000000000000001000000000001002A
:1013C0000101000101010100000100010000010014
:1013D0000001000100000000000100010000000009
:1013E00000010001000000000001000100000000F9
:1013F00000010000010100000000000000000100E9
:1014000000000100000000000000000000000000DB
:1014100001010100000100000000000000010100C6
:1014200000010100000100000101000101010000B4
:1014300000010101010101000000000101010000A3
:101440000001010101010000010000000000000096
:101450000101010101010100010100000101000081
:101460000100000100000100000100000100000077
:101470000100000001000000010000010000000068
:101480000001000001010101010000010101010151
:101490000101000001010101010100000000000044
:1014A000000000000000000000000000000000003C
:1014B000000000000000000000000000000000002C
:1014C000000000000000000000000000000000001C
:1014D000000000000000000000000000000000000C
:1014E00000000000000000000000000000000000FC
:1014F00000000000000000000000000000000000EC
:1015000000000000000000000000000000000000DB
:1015100000000000000000000000000000000000CB
:1015200000000000000000000000000000000000BB
:1015300000000000000000000000000000000000AB
:10154000000000000000000000000000000000009B
:10155000000000000000000000000000000000008B
:10156000000000000000000000000000000000007B
:10157000000000000000000000000000000000006B
:10158000000000000000000000000000000000005B
:10159000000000000000000000000000000000004B
:1015A000000000000000000000000000000000003B
:1015B000000000000000000000000000000000002B
:1015C000000000000000000000000000000000001B
:0E15D000F1015B0188013E02B9019701AB01F8
:00000001FF
